{
  "contractName": "TicTacToe",
  "abi": [
    {
      "constant": true,
      "inputs": [],
      "name": "player2",
      "outputs": [
        {
          "name": "",
          "type": "address"
        }
      ],
      "payable": false,
      "stateMutability": "view",
      "type": "function"
    },
    {
      "constant": true,
      "inputs": [],
      "name": "activePlayer",
      "outputs": [
        {
          "name": "",
          "type": "address"
        }
      ],
      "payable": false,
      "stateMutability": "view",
      "type": "function"
    },
    {
      "constant": true,
      "inputs": [
        {
          "name": "",
          "type": "uint256"
        },
        {
          "name": "",
          "type": "uint256"
        }
      ],
      "name": "board",
      "outputs": [
        {
          "name": "",
          "type": "address"
        }
      ],
      "payable": false,
      "stateMutability": "view",
      "type": "function"
    },
    {
      "constant": true,
      "inputs": [],
      "name": "player1",
      "outputs": [
        {
          "name": "",
          "type": "address"
        }
      ],
      "payable": false,
      "stateMutability": "view",
      "type": "function"
    },
    {
      "inputs": [],
      "payable": true,
      "stateMutability": "payable",
      "type": "constructor"
    },
    {
      "anonymous": false,
      "inputs": [
        {
          "indexed": false,
          "name": "player1",
          "type": "address"
        },
        {
          "indexed": false,
          "name": "player2",
          "type": "address"
        }
      ],
      "name": "GameStart",
      "type": "event"
    },
    {
      "anonymous": false,
      "inputs": [
        {
          "indexed": false,
          "name": "nextPlayer",
          "type": "address"
        }
      ],
      "name": "NextPlayer",
      "type": "event"
    },
    {
      "anonymous": false,
      "inputs": [
        {
          "indexed": false,
          "name": "winner",
          "type": "address"
        }
      ],
      "name": "GameOver",
      "type": "event"
    },
    {
      "anonymous": false,
      "inputs": [
        {
          "indexed": false,
          "name": "to",
          "type": "address"
        },
        {
          "indexed": false,
          "name": "balance",
          "type": "uint256"
        }
      ],
      "name": "Withdraw",
      "type": "event"
    },
    {
      "constant": false,
      "inputs": [],
      "name": "joinGame",
      "outputs": [],
      "payable": true,
      "stateMutability": "payable",
      "type": "function"
    },
    {
      "constant": true,
      "inputs": [],
      "name": "getBoard",
      "outputs": [
        {
          "name": "",
          "type": "address[3][3]"
        }
      ],
      "payable": false,
      "stateMutability": "view",
      "type": "function"
    },
    {
      "constant": false,
      "inputs": [
        {
          "name": "x",
          "type": "uint8"
        },
        {
          "name": "y",
          "type": "uint8"
        }
      ],
      "name": "setPosition",
      "outputs": [],
      "payable": false,
      "stateMutability": "nonpayable",
      "type": "function"
    },
    {
      "constant": false,
      "inputs": [],
      "name": "withdraw",
      "outputs": [],
      "payable": false,
      "stateMutability": "nonpayable",
      "type": "function"
    },
    {
      "constant": false,
      "inputs": [],
      "name": "drawback",
      "outputs": [],
      "payable": false,
      "stateMutability": "nonpayable",
      "type": "function"
    }
  ],
  "bytecode": "0x60806040526000600b60146101000a81548160ff0219169083151502179055506000600c55670de0b6b3a76400003414151561003a57600080fd5b33600960006101000a81548173ffffffffffffffffffffffffffffffffffffffff021916908373ffffffffffffffffffffffffffffffffffffffff160217905550603c4201600f8190555061172a806100946000396000f300608060405260043610610099576000357c0100000000000000000000000000000000000000000000000000000000900463ffffffff1680632409dfa21461009e5780633264a34b146100b55780633ccfd60b1461012b57806359a5f12d146101425780637fdffd23146101995780638086a92a146101f0578063bd7669cc14610267578063d30895e4146102a4578063d4f77b1c146102fb575b600080fd5b3480156100aa57600080fd5b506100b3610305565b005b3480156100c157600080fd5b506100ca610366565b604051808260036000925b8184101561011b5782846020020151600360200280838360005b8381101561010a5780820151818401526020810190506100ef565b5050505090500192600101926100d5565b9250505091505060405180910390f35b34801561013757600080fd5b5061014061041f565b005b34801561014e57600080fd5b506101576106fa565b604051808273ffffffffffffffffffffffffffffffffffffffff1673ffffffffffffffffffffffffffffffffffffffff16815260200191505060405180910390f35b3480156101a557600080fd5b506101ae610720565b604051808273ffffffffffffffffffffffffffffffffffffffff1673ffffffffffffffffffffffffffffffffffffffff16815260200191505060405180910390f35b3480156101fc57600080fd5b506102256004803603810190808035906020019092919080359060200190929190505050610746565b604051808273ffffffffffffffffffffffffffffffffffffffff1673ffffffffffffffffffffffffffffffffffffffff16815260200191505060405180910390f35b34801561027357600080fd5b506102a2600480360381019080803560ff169060200190929190803560ff16906020019092919050505061078f565b005b3480156102b057600080fd5b506102b9610f48565b604051808273ffffffffffffffffffffffffffffffffffffffff1673ffffffffffffffffffffffffffffffffffffffff16815260200191505060405180910390f35b610303610f6e565b005b42600f5410151561031557600080fd5b600b60149054906101000a900460ff16151561035b57610356600960009054906101000a900473ffffffffffffffffffffffffffffffffffffffff16611268565b610364565b61036361141b565b5b565b61036e6116ac565b6000600380602002604051908101604052809291906000905b8282101561041657838260030201600380602002604051908101604052809291908260038015610402576020028201915b8160009054906101000a900473ffffffffffffffffffffffffffffffffffffffff1673ffffffffffffffffffffffffffffffffffffffff16815260200190600101908083116103b8575b505050505081526020019060010190610387565b50505050905090565b600960009054906101000a900473ffffffffffffffffffffffffffffffffffffffff1673ffffffffffffffffffffffffffffffffffffffff163373ffffffffffffffffffffffffffffffffffffffff16141561058d576000600d5411151561048657600080fd5b6000600d81905550600960009054906101000a900473ffffffffffffffffffffffffffffffffffffffff1673ffffffffffffffffffffffffffffffffffffffff166108fc600d549081150290604051600060405180830381858888f193505050501580156104f8573d6000803e3d6000fd5b507f884edad9ce6fa2440d8a54cc123490eb96d2768479d49ff9c7366125a9424364600960009054906101000a900473ffffffffffffffffffffffffffffffffffffffff16600d54604051808373ffffffffffffffffffffffffffffffffffffffff1673ffffffffffffffffffffffffffffffffffffffff1681526020018281526020019250505060405180910390a16106f8565b600a60009054906101000a900473ffffffffffffffffffffffffffffffffffffffff1673ffffffffffffffffffffffffffffffffffffffff163373ffffffffffffffffffffffffffffffffffffffff1614156106f7576000600e541115156105f457600080fd5b6000600e81905550600a60009054906101000a900473ffffffffffffffffffffffffffffffffffffffff1673ffffffffffffffffffffffffffffffffffffffff166108fc600e549081150290604051600060405180830381858888f19350505050158015610666573d6000803e3d6000fd5b507f884edad9ce6fa2440d8a54cc123490eb96d2768479d49ff9c7366125a9424364600a60009054906101000a900473ffffffffffffffffffffffffffffffffffffffff16600e54604051808373ffffffffffffffffffffffffffffffffffffffff1673ffffffffffffffffffffffffffffffffffffffff1681526020018281526020019250505060405180910390a15b5b565b600a60009054906101000a900473ffffffffffffffffffffffffffffffffffffffff1681565b600b60009054906101000a900473ffffffffffffffffffffffffffffffffffffffff1681565b60008260038110151561075557fe5b600302018160038110151561076657fe5b016000915091509054906101000a900473ffffffffffffffffffffffffffffffffffffffff1681565b60008073ffffffffffffffffffffffffffffffffffffffff1660008460ff166003811015156107ba57fe5b600302018360ff166003811015156107ce57fe5b0160009054906101000a900473ffffffffffffffffffffffffffffffffffffffff1673ffffffffffffffffffffffffffffffffffffffff1614151561081257600080fd5b42600f5411151561082257600080fd5b600b60009054906101000a900473ffffffffffffffffffffffffffffffffffffffff1673ffffffffffffffffffffffffffffffffffffffff163373ffffffffffffffffffffffffffffffffffffffff1614151561087e57600080fd5b600360ff168360ff1610801561089a5750600360ff168260ff16105b15156108a257fe5b600b60149054906101000a900460ff1615156108ba57fe5b3360008460ff166003811015156108cd57fe5b600302018360ff166003811015156108e157fe5b0160006101000a81548173ffffffffffffffffffffffffffffffffffffffff021916908373ffffffffffffffffffffffffffffffffffffffff160217905550600c60008154809291906001019190505550603c4201600f81905550600090505b600360ff168160ff161015610a4257600b60009054906101000a900473ffffffffffffffffffffffffffffffffffffffff1673ffffffffffffffffffffffffffffffffffffffff1660008460ff1660038110151561099b57fe5b600302018260ff166003811015156109af57fe5b0160009054906101000a900473ffffffffffffffffffffffffffffffffffffffff1673ffffffffffffffffffffffffffffffffffffffff161415156109f357610a42565b600160030360ff168160ff161415610a3557610a30600b60009054906101000a900473ffffffffffffffffffffffffffffffffffffffff16611268565b610f43565b8080600101915050610941565b600090505b600360ff168160ff161015610b4857600b60009054906101000a900473ffffffffffffffffffffffffffffffffffffffff1673ffffffffffffffffffffffffffffffffffffffff1660008260ff16600381101515610aa157fe5b600302018360ff16600381101515610ab557fe5b0160009054906101000a900473ffffffffffffffffffffffffffffffffffffffff1673ffffffffffffffffffffffffffffffffffffffff16141515610af957610b48565b600160030360ff168160ff161415610b3b57610b36600b60009054906101000a900473ffffffffffffffffffffffffffffffffffffffff16611268565b610f43565b8080600101915050610a47565b8160ff168360ff161415610c5d57600090505b600360ff168160ff161015610c5c57600b60009054906101000a900473ffffffffffffffffffffffffffffffffffffffff1673ffffffffffffffffffffffffffffffffffffffff1660008260ff16600381101515610bb557fe5b600302018260ff16600381101515610bc957fe5b0160009054906101000a900473ffffffffffffffffffffffffffffffffffffffff1673ffffffffffffffffffffffffffffffffffffffff16141515610c0d57610c5c565b600160030360ff168160ff161415610c4f57610c4a600b60009054906101000a900473ffffffffffffffffffffffffffffffffffffffff16611268565b610f43565b8080600101915050610b5b565b5b600160030360ff1682840160ff161415610d7e57600090505b600360ff168160ff161015610d7d57600b60009054906101000a900473ffffffffffffffffffffffffffffffffffffffff1673ffffffffffffffffffffffffffffffffffffffff1660008260ff16600381101515610cd057fe5b600302016001836003030360ff16600381101515610cea57fe5b0160009054906101000a900473ffffffffffffffffffffffffffffffffffffffff1673ffffffffffffffffffffffffffffffffffffffff16141515610d2e57610d7d565b600160030360ff168160ff161415610d7057610d6b600b60009054906101000a900473ffffffffffffffffffffffffffffffffffffffff16611268565b610f43565b8080600101915050610c76565b5b6003800260ff16600c541415610d9b57610d9661141b565b610f43565b600960009054906101000a900473ffffffffffffffffffffffffffffffffffffffff1673ffffffffffffffffffffffffffffffffffffffff163373ffffffffffffffffffffffffffffffffffffffff161415610e5957600a60009054906101000a900473ffffffffffffffffffffffffffffffffffffffff16600b60006101000a81548173ffffffffffffffffffffffffffffffffffffffff021916908373ffffffffffffffffffffffffffffffffffffffff160217905550610ebd565b600960009054906101000a900473ffffffffffffffffffffffffffffffffffffffff16600b60006101000a81548173ffffffffffffffffffffffffffffffffffffffff021916908373ffffffffffffffffffffffffffffffffffffffff1602179055505b7f637351f91da430278368fb3e486c8c3da47b2e6ce4d28b2c404cb044702ca7e1600b60009054906101000a900473ffffffffffffffffffffffffffffffffffffffff16604051808273ffffffffffffffffffffffffffffffffffffffff1673ffffffffffffffffffffffffffffffffffffffff16815260200191505060405180910390a15b505050565b600960009054906101000a900473ffffffffffffffffffffffffffffffffffffffff1681565b670de0b6b3a764000034141515610f8457600080fd5b600073ffffffffffffffffffffffffffffffffffffffff16600a60009054906101000a900473ffffffffffffffffffffffffffffffffffffffff1673ffffffffffffffffffffffffffffffffffffffff16141515610fe157600080fd5b33600a60006101000a81548173ffffffffffffffffffffffffffffffffffffffff021916908373ffffffffffffffffffffffffffffffffffffffff1602179055506001600b60146101000a81548160ff0219169083151502179055507f8fd707874eb940598510258c64cad23fd35fe8c85c5c38e8782fac2cc887fb6e600960009054906101000a900473ffffffffffffffffffffffffffffffffffffffff1633604051808373ffffffffffffffffffffffffffffffffffffffff1673ffffffffffffffffffffffffffffffffffffffff1681526020018273ffffffffffffffffffffffffffffffffffffffff1673ffffffffffffffffffffffffffffffffffffffff1681526020019250505060405180910390a1603c4201600f81905550600060024381151561110e57fe5b06141561117d57600a60009054906101000a900473ffffffffffffffffffffffffffffffffffffffff16600b60006101000a81548173ffffffffffffffffffffffffffffffffffffffff021916908373ffffffffffffffffffffffffffffffffffffffff1602179055506111e1565b600960009054906101000a900473ffffffffffffffffffffffffffffffffffffffff16600b60006101000a81548173ffffffffffffffffffffffffffffffffffffffff021916908373ffffffffffffffffffffffffffffffffffffffff1602179055505b7f637351f91da430278368fb3e486c8c3da47b2e6ce4d28b2c404cb044702ca7e1600b60009054906101000a900473ffffffffffffffffffffffffffffffffffffffff16604051808273ffffffffffffffffffffffffffffffffffffffff1673ffffffffffffffffffffffffffffffffffffffff16815260200191505060405180910390a1565b600080600b60146101000a81548160ff0219169083151502179055507ff556ad7790e70877edcf3b3bb441255def8a405faa0dfdb005a02fa8e557bca982604051808273ffffffffffffffffffffffffffffffffffffffff1673ffffffffffffffffffffffffffffffffffffffff16815260200191505060405180910390a13073ffffffffffffffffffffffffffffffffffffffff163190508173ffffffffffffffffffffffffffffffffffffffff166108fc829081150290604051600060405180830381858888f1935050505015156113ab57600960009054906101000a900473ffffffffffffffffffffffffffffffffffffffff1673ffffffffffffffffffffffffffffffffffffffff168273ffffffffffffffffffffffffffffffffffffffff16141561139e5780600d819055506113a6565b80600e819055505b611417565b7f884edad9ce6fa2440d8a54cc123490eb96d2768479d49ff9c7366125a94243648282604051808373ffffffffffffffffffffffffffffffffffffffff1673ffffffffffffffffffffffffffffffffffffffff1681526020018281526020019250505060405180910390a15b5050565b600080600b60146101000a81548160ff0219169083151502179055507ff556ad7790e70877edcf3b3bb441255def8a405faa0dfdb005a02fa8e557bca96000604051808273ffffffffffffffffffffffffffffffffffffffff16815260200191505060405180910390a160023073ffffffffffffffffffffffffffffffffffffffff16318115156114a857fe5b049050600960009054906101000a900473ffffffffffffffffffffffffffffffffffffffff1673ffffffffffffffffffffffffffffffffffffffff166108fc670de0b6b3a76400009081150290604051600060405180830381858888f19350505050151561151c5780600d819055506115aa565b7f884edad9ce6fa2440d8a54cc123490eb96d2768479d49ff9c7366125a9424364600960009054906101000a900473ffffffffffffffffffffffffffffffffffffffff1682604051808373ffffffffffffffffffffffffffffffffffffffff1673ffffffffffffffffffffffffffffffffffffffff1681526020018281526020019250505060405180910390a15b600a60009054906101000a900473ffffffffffffffffffffffffffffffffffffffff1673ffffffffffffffffffffffffffffffffffffffff166108fc670de0b6b3a76400009081150290604051600060405180830381858888f19350505050151561161b5780600e819055506116a9565b7f884edad9ce6fa2440d8a54cc123490eb96d2768479d49ff9c7366125a9424364600a60009054906101000a900473ffffffffffffffffffffffffffffffffffffffff1682604051808373ffffffffffffffffffffffffffffffffffffffff1673ffffffffffffffffffffffffffffffffffffffff1681526020018281526020019250505060405180910390a15b50565b610120604051908101604052806003905b6116c56116db565b8152602001906001900390816116bd5790505090565b6060604051908101604052806003906020820280388339808201915050905050905600a165627a7a7230582077ba8ce2b561d308359fb9b1b2db9055135016cc78ab0fad5e4472ea55cf7e3b0029",
  "source": "pragma solidity ^0.4.24;\n\ncontract TicTacToe {\n    uint constant GAME_COST = 1 ether;\n    uint8 constant GAME_BOARD_SIZE = 3;\n    uint constant TIME_INTERVAL = 1 minutes;\n\n    address[GAME_BOARD_SIZE][GAME_BOARD_SIZE] public board; //游戏面板\n\n    address public   player1;\n    address public player2;\n    address public activePlayer;  //当前玩家\n    bool gameActive = false; // 游戏是否开始\n    uint steps = 0;    //游戏步数\n    uint withDrawBalance1;  //用户1余额\n    uint withDrawBalance2;  //用户2余额\n    uint timeValid;\n\n    event GameStart(address player1,address player2); // 玩家加入事件\n    event NextPlayer(address nextPlayer);   // 下一个玩家\n    event GameOver(address winner);    // 游戏结束事件\n    event Withdraw(address to, uint balance); // 支付成功\n\n    constructor() public payable{\n        require(msg.value == GAME_COST);\n        player1 = msg.sender;\n\n        // 超时时间判断\n        timeValid = now + TIME_INTERVAL;\n    }\n\n    // 加入游戏\n    function joinGame() public payable {\n        require(msg.value == GAME_COST);\n//        require(player1 != msg.sender);\n        require(player2 == address(0));\n        player2 = msg.sender;\n        gameActive = true;\n\n        // 发送消息\n        emit GameStart(player1,msg.sender);\n\n        //时间判断\n        timeValid = now + TIME_INTERVAL;\n\n        //设置随机玩家\n        if(block.number % 2 == 0) {\n            activePlayer = player2;\n        } else {\n            activePlayer = player1;\n        }\n        emit NextPlayer(activePlayer);\n    }\n\n    //获取游戏面板\n    function getBoard() public view returns (address[GAME_BOARD_SIZE][GAME_BOARD_SIZE]) {\n        return board;\n    }\n\n    function setPosition(uint8 x, uint8 y) public {\n        require(board[x][y] == address(0));\n        // 该位置未设置过\n        require(timeValid > now);\n        // 时间判断\n        require(msg.sender == activePlayer);\n        //当前玩家\n        assert(x < GAME_BOARD_SIZE && y < GAME_BOARD_SIZE);\n        // 正确的位置\n        assert(gameActive);\n\n        board[x][y] = msg.sender;\n        steps++;\n        //时间判断\n        timeValid = now + TIME_INTERVAL;\n\n\n        // 行 00,01,02\n        for (uint8 i = 0; i < GAME_BOARD_SIZE; i++) {\n            if (board[x][i] != activePlayer) {\n                break;\n            }\n\n            if (i == GAME_BOARD_SIZE - 1) {\n                setWinner(activePlayer);\n                return;\n            }\n        }\n\n        // 列  01,11,21\n        for (i = 0; i < GAME_BOARD_SIZE; i++) {\n            if (board[i][y] != activePlayer) {\n                break;\n            }\n\n            if (i == GAME_BOARD_SIZE - 1) {\n                setWinner(activePlayer);\n                return;\n            }\n        }\n\n\n        // 对角线 00，11，22\n        if (x == y) {\n            for (i = 0; i < GAME_BOARD_SIZE; i++) {\n                if (board[i][i] != activePlayer) {\n                    break;\n                }\n                // win\n                if (i == GAME_BOARD_SIZE - 1) {\n                    setWinner(activePlayer);\n                    return;\n                }\n            }\n        }\n\n        // 反对角线 02，11，20\n        if (x + y == GAME_BOARD_SIZE - 1) {\n            for (i = 0; i < GAME_BOARD_SIZE; i++) {\n                if (board[i][GAME_BOARD_SIZE - i - 1] != activePlayer) {\n                    break;\n                }\n                // win\n                if (i == GAME_BOARD_SIZE - 1) {\n                    setWinner(activePlayer);\n                    return;\n                }\n            }\n        }\n\n        // 平局\n        if (steps == GAME_BOARD_SIZE * GAME_BOARD_SIZE) {\n            // 提现\n            setDraw();\n            return ;\n        }\n\n        if (msg.sender == player1) {\n            activePlayer = player2;\n        } else {\n            activePlayer = player1;\n        }\n        emit NextPlayer(activePlayer);\n    }\n\n    function setWinner(address player) private {\n        gameActive = false;\n        // 发送消息\n        emit GameOver(player);\n        // 转账 如果发送失败，允许用户提现\n        uint payBalance = address(this).balance;\n        if (!player.send(payBalance)) {\n            if (player == player1) {\n                withDrawBalance1 = payBalance;\n            } else {\n                withDrawBalance2 = payBalance;\n            }\n        } else {\n           emit Withdraw(player, payBalance);\n        }\n    }\n\n\n\n    // 设置平局\n    function setDraw() private {\n        gameActive = false;\n        emit GameOver(0);\n        uint payBalance = address(this).balance / 2;\n\n        // 用户1提现\n        if (!player1.send(GAME_COST)) {\n            withDrawBalance1 = payBalance;\n        } else {\n            emit Withdraw(player1, payBalance);\n        }\n\n        // 用户2 提现\n        if (!player2.send(GAME_COST)) {\n            withDrawBalance2 = payBalance;\n        } else {\n           emit Withdraw(player2, payBalance);\n        }\n    }\n\n    // 允许用户提现\n    function withdraw() public {\n        if (msg.sender == player1) {\n            // 先修改状态，在transfer\n            require(withDrawBalance1 > 0);\n            withDrawBalance1 = 0;\n            player1.transfer(withDrawBalance1);\n\n            // 提现消息\n            emit  Withdraw(player1, withDrawBalance1);\n        } else if (msg.sender == player2) {\n            require(withDrawBalance2 > 0);\n            withDrawBalance2 = 0;\n            player2.transfer(withDrawBalance2);\n            emit Withdraw(player2, withDrawBalance2);\n        }\n    }\n\n    function drawback() public {\n        require(timeValid < now); // 超时之后可以提现\n        if (!gameActive) {\n            // 如果游戏没开始，退款给创建者\n            setWinner(player1);\n        }else{\n            //如果已经开始， 平局退款流程\n            setDraw();\n            // TODO 恶意退出游戏，应该退全部赌给该赢的玩家\n        }\n    }\n}\n",
  "sourcePath": "/Users/suibingyue/develop/eth/eth-game-tictactoe/contracts/TicTacToe.sol",
  "compiler": {
    "name": "solc",
    "version": "0.4.25+commit.59dbf8f1.Emscripten.clang"
  },
  "schemaVersion": "2.0.2",
  "updatedAt": "2019-01-03T08:46:57.866Z"
}